:020000040800F2
:1000000090070020111500083D0200083F0200087B
:1000100043020008470200084B02000800000000ED
:100020000000000000000000000000004F02000877
:1000300051020008000000005302000855020008A9
:100040002B1500082B1500082B1500082B15000890
:100050002B1500082B1500082B1500082B15000880
:100060002B1500082B1500082B1500082B15000870
:100070002B1500082B1500082B1500082B15000860
:100080002B1500082B1500082B1500082B15000850
:100090002B1500082B1500082B1500082B15000840
:1000A0002B1500082B1500082B1500082B15000830
:1000B0002B1500082B1500082B1500082B15000820
:1000C0002B1500082B1500082B1500082B15000810
:1000D0002B150008871400082B1500082B150008A5
:1000E0002B1500082B1500082B1500082B150008F0
:1000F0002B1500082B1500082B1500082B150008E0
:100100002B1500082B1500082B1500082B150008CF
:100110002B1500082B1500082B1500082B150008BF
:100120002B1500082B1500082B1500082B150008AF
:1001300000F002F800F03AF80AA090E8000C8244BF
:100140008344AAF10107DA4501D100F02FF8AFF29C
:10015000090EBAE80F0013F0010F18BFFB1A43F0A5
:1001600001031847DC300000FC300000103A24BFC7
:1001700078C878C1FAD8520724BF30C830C144BF0C
:1001800004680C607047000000230024002500264E
:10019000103A28BF78C1FBD8520728BF30C148BFEA
:1001A0000B6070471FB51FBD10B510BD02F0D4FE27
:1001B0001146FFF7F7FF00F009F802F0F2FE03B472
:1001C000FFF7F2FF03BC01F003F9000010B50024B3
:1001D00001F094F800F0B2FC00F02EF900F0E4FC1D
:1001E0004FF4165001F003F9002140F2833000F083
:1001F0005DF900F039FD00F0E9FF4FF4FA7001F00D
:10020000BAF800F031FD00F0E1FF4FF4FA7001F0B0
:10021000B2F800F0FCFA4FF4FA6001F0ACF800F02C
:100220001BFA642001F0A7F842F2486202494842F2
:1002300000F052FC002010BD0CFEFFFF704700BF15
:10024000FEE700BFFEE700BFFEE700BFFEE7704726
:1002500070477047704700000CB500200190009077
:100260006C48006840F480306A49086000BF694803
:10027000006800F4003000900198401C0190009844
:1002800018B90198B0F5A06FF1D16248006800F488
:10029000003010B10120009001E000200090009893
:1002A000012843D15C48006840F010005A490860BA
:1002B0000846006820F0030008600846006840F027
:1002C0000200086053484068524948600846406848
:1002D00048600846406840F48060486008464068CE
:1002E00020F47C1048600846406840F4E8104860FC
:1002F0000846006840F08070086000BF454800680C
:1003000000F000700028F9D04248406820F0030057
:10031000404948600846406840F00200486000BF1D
:100320003C48406800F00C000828F9D10CBD10B51D
:10033000FFF792FF10BD10B53648006840F001008D
:1003400034490860084640683449084031494860EB
:1003500008460068324908402E490860084600688F
:1003600020F4802008600846406820F4FE004860C1
:100370004FF41F008860FFF7DAFF4FF00060294953
:10038000086010BD10B5002100200022214B5B68E1
:1003900003F00C0121B1042906D0082928D107E077
:1003A000214B224C236027E01F4B204C236023E08D
:1003B000184B5B6803F47010164B5B6803F48032D3
:1003C000022303EB904022B9194B4343174C23609F
:1003D0000DE0104B5B6803F4003323B1144B43432F
:1003E000124C236003E0104B4343104C236003E0A6
:1003F0000D4B0E4C236000BF00BF064B5B68C3F380
:1004000003130C4CE15C094B1B68CB40074C236089
:1004100010BD000000100240002002400000FFF864
:10042000FFFFF6FE08ED00E000127A000000002059
:1004300000093D000400002008B50121042001F05E
:10044000A3FB0520ADF8000010208DF80300032069
:100450008DF802006946134801F0DAF805211148C9
:1004600001F083F90A20ADF8000069460E4801F05A
:10047000CFF80A210B4801F078F94FF48070ADF8FD
:10048000000010208DF8030003208DF8020069465B
:10049000044801F0BDF84FF48071024801F065F99D
:1004A00008BD0000000801400014014030B589B0CB
:1004B00004460D460121082001F073FB0121084686
:1004C00001F062FB0121042001F05EFB0320ADF886
:1004D00020008DF8220018208DF8230008A94F482D
:1004E00001F096F80C20ADF8200010208DF82300C4
:1004F00003208DF8220008A9484801F089F80C2152
:10050000464801F032F9ADF80840ADF8045000203B
:10051000ADF80A00ADF8060001A9414801F0DEFE81
:1005200004A802F010FA6020ADF810000120ADF828
:1005300012000020ADF816000220ADF8180004A942
:10054000374801F008FF6020ADF810000120ADF839
:1005500012000020ADF816000220ADF8180004A922
:100560002F4801F03AFF08212D4802F043FB0121FA
:100570002B4802F01BFA0121294802F00BFB012154
:10058000274802F007FA2748048009B030BD70B54B
:1005900004460D4623480088854201DD2148058830
:1005A000204800884042854202DA1E4800884542C1
:1005B0001C480088844201DD1A48048819480088D4
:1005C0004042844202DA174800884442002D07DD89
:1005D000012015490860A9B2114802F073FC07E038
:1005E0006D42002010490860A9B20D4802F06AFC73
:1005F000002C08DD01200C49091D0860A1B2084843
:1006000002F062FC08E0644200200749091D08600E
:10061000A1B2034802F058FC70BD00000008014080
:10062000000C0040140000208801214210B5F84859
:100630000168F8480068FFF7AAFF10BD10B54FF435
:1006400087716FF4ED70FFF7A2FF10BD10B5F2498E
:10065000F020FFF79CFF10BD10B501210846FFF701
:1006600096FF10BD2DE9F047EC48006860B9EB48F3
:10067000001D006840B9EA4800684142E948006846
:100680004042FFF784FFC0E0E448001D006800BB63
:10069000E3480068404202F0BEFC07464FF03332A8
:1006A000E14B02F0CFFC054602F086FC0446DD4833
:1006B0000068404202F0AFFC0746DC4ADC4B02F027
:1006C000C1FC054602F078FC81462146FFF75FFF3A
:1006D0009BE0D248006800BBD1480068404202F06D
:1006E0009AFC0746D14AD24B02F0ACFC054602F018
:1006F00063FC0446CB480068404202F08CFC07468D
:100700004FF03332C84B02F09DFC054602F054FC1A
:1007100081462146FFF73BFF77E0C648006818B1E5
:10072000BE481430006800BBBD480068404202F07B
:1007300072FC0746BD4AC04B02F084FC054602F03D
:100740003BFC0446B7480068404202F064FC0746A0
:100750004FF03332B94B02F075FC054602F02CFC29
:1007600081462146FFF713FF4FE0AC48001F0068A9
:1007700018B1AA480838006800BBA9480068404280
:1007800002F049FC07464FF03332AC4B02F05AFC02
:10079000054602F011FC0446A2480068404202F0FF
:1007A0003AFC0746A14AA44B02F04CFC054602F075
:1007B00003FC81462146FFF7EAFE26E09748083809
:1007C0000068012819D19548001F0068012814D13C
:1007D00092480068012810D19048001D0068012847
:1007E0000BD194480068012807D18C481430006868
:1007F000012802D1FFF730FF07E089480068414235
:10080000884800684042FFF7C2FEBDE8F0872DE946
:10081000F04788482830006850B986482C30006876
:1008200030B97B4801687B480068FFF7B0FED6E02E
:1008300080482C300068F0B97548006802F0EBFB86
:1008400007467A4A7A4B02F0FDFB054602F0B4FBFC
:1008500004467048006802F0DEFB07464FF0333272
:10086000714B02F0EFFB054602F0A6FB81462146E4
:10087000FFF78DFEB3E06F4828300068F0B9644898
:10088000006802F0C8FB07464FF03332664B02F0B7
:10089000D9FB054602F090FB04465E48006802F072
:1008A000BAFB0746614A624B02F0CCFB054602F0F8
:1008B00083FB81462146FFF76AFE90E05D483830B1
:1008C000006818B15B4834300068E8B950480068E7
:1008D00002F0A1FB07465A4A5A4B02F0B3FB054609
:1008E00002F06AFB04464B48006802F094FB07469E
:1008F000534A554B02F0A6FB054602F05DFB8146CC
:100900002146FFF744FE6AE04A482430006818B1E7
:10091000484820300068E8B93D48006802F07BFB99
:100920000746474A484B02F08DFB054602F044FB60
:1009300004463848006802F06EFB0746404A414BC7
:1009400002F080FB054602F037FB81462146FFF7A7
:100950001EFE44E03D480068E8B92D48006802F0FA
:100960005AFB0746314A3A4B02F06CFB054602F04F
:1009700023FB04462748006802F04DFB07462B4A3C
:10098000344B02F05FFB054602F016FB8146214620
:10099000FFF7FDFD23E02D48001D0068E8B91C4865
:1009A000006802F038FB0746204A2A4B02F04AFB57
:1009B000054602F001FB04461648006802F02BFBD6
:1009C00007461A4A224B02F03DFB054602F0F4FAB4
:1009D00081462146FFF7DBFD01E0FFF727FEBDE87A
:1009E000F08710B544E01C4800681C49884239DD96
:1009F000FFF724FE00F022FC174800681849B1F9FF
:100A000000100844144908603C2000F0B4FC2FE0BA
:100A1000200000201C000020F8FDFFFF18012142EB
:100A200028000020240000203333F33F9A9999993D
:100A30009999E93F048121429999F93F3333D33F92
:100A4000CDCCCCCCCCCCEC3FCCCCF43F2001224262
:100A50009999C93F999901401800002088E1FFFF4A
:100A600038000020314800683149884200DC00E04D
:100A7000B9E700BFFFF7DAFD40F21D1000F07BFC84
:100A800000202A49086010BD70B505460E46144680
:100A90001CE0264800686142884211DD3146284644
:100AA000FFF775FD00F0CAFB204800682149B1F945
:100AB000001008441D4908603C2000F05CFC05E083
:100AC0001A4800686142884200DC00E0E1E700BFAC
:100AD00000201649086070BD70B505460E461446E4
:100AE0001DE001201449086010480068A04211DC94
:100AF00031462846FFF74BFD3C2000F03CFC00F05F
:100B00009DFB0A4800680B49B1F90010401A0749DB
:100B1000086004E005480068A04200DD00E0E0E76E
:100B200000BF00200149086070BD000018000020CF
:100B300088E1FFFF38000020A001214208B5012113
:100B40001C2001F021F84DF6C370ADF800004820DC
:100B50008DF8030003208DF8020069460F4800F06D
:100B600057FD4FF41F60ADF8000048208DF80300DA
:100B700003208DF802006946094800F049FD4FF452
:100B80004070ADF8000048208DF8030003208DF878
:100B900002006946034800F03BFD08BD000C01401F
:100BA000000801400010014008B50121142000F0A8
:100BB000EBFF0121284800F0FCFD4FF40040ADF8A8
:100BC000000048208DF803006946244800F020FD0D
:100BD0002020ADF8000048208DF803006946204829
:100BE00000F016FD08BD10B5044614B101201D49E2
:100BF00008701C480078F8B12021194800F09BFDCE
:100C000028B14FF40041154800F095FDA0B90A2025
:100C100000F0B1FB0020134908702021104800F0BB
:100C20008AFD08B9012010BD4FF400410B4800F0C7
:100C300082FD78B90220F6E72021094800F07BFD0B
:100C4000012807D1C103054800F075FD012801D135
:100C5000044908700020E6E7000230000008014067
:100C6000001001402C00002008B50121102000F0E8
:100C70008BFF4FF4C050ADF8000010208DF803003A
:100C800003208DF8020069468A4800F0C1FC01206B
:100C9000894908608949C1F8AC0108BD10B585488B
:100CA000406820F47040834948600846406840F43A
:100CB0004050486001208049091F08607F49C1F801
:100CC000B001042000F033FB00207B49091F0860BD
:100CD000042000F02CFB00207849C1F8B00110BDC1
:100CE00010B57448406820F4704072494860084666
:100CF000406840F44050486000206F4908606F49E8
:100D0000C1F8AC01042000F012FB01206A49086020
:100D10006A49C1F8AC01042000F009FB10BD10B510
:100D200000246448406820F47040624948600846E6
:100D3000406840F40040486001205F49091F086096
:100D400000F0F5FA01205D49C1F8B00100F0EFFABA
:100D500007E0601CC4B2FA2C03DDFFF7C1FF0120DD
:100D600010BD5548843800680028F2D15249086007
:100D700000BFF5E710B500204F4908604D484068B6
:100D800020F470404B4948600846406840F44050A9
:100D9000486000204949C1F8AC01022000F0C7FAC0
:100DA000012045490860022000F0C1FA00204349B3
:100DB000C1F8B00110BD10B500203F4908603D48A2
:100DC000406820F470403B4948600846406840F461
:100DD0004050486001203949C1F8AC01022000F0C0
:100DE000A6FA012034490860022000F0A0FA002091
:100DF0003249C1F8B00110BD70B504462D484068B5
:100E000020F470402B4948600846406840F4405048
:100E10004860002028490860002517E0E0092649BD
:100E2000091F08606006040E022000F080FA01200D
:100E30002249C1F8B001022000F079FA00201E49D1
:100E40000860022000F073FA681CC5B2082DE5DBCB
:100E500070BD70B5054600241648406820F4704007
:100E6000144948600846406840F400404860002645
:100E700016E0002010490860022000F058FA012016
:100E80000E49C1F8B0016006040E0B4884380068B2
:100E900008B1601CC4B2012000F049FA701CC6B24F
:100EA000082EE6DB15B9FFF786FF01E0FFF762FFCA
:100EB000204670BD00100140B001224200002242D5
:100EC000002904DA4A4211B22D22027001E02022E8
:100ED00002704FF47A7291FBF2F23032D3B2421CBC
:100EE000104613704FF47A7291FBF2F302FB131168
:100EF000642291FBF2F23032D3B2421C10461370DE
:100F0000642291FBF2F302FB13110A2291FBF2F22D
:100F10003032D3B2421C104613700A2291FBF2F316
:100F200002FB131101F13002D3B2421C10461370C0
:100F30000023421C10461370704710B50121102089
:100F400000F022FEE748406820F47040E549486020
:100F50000846406840F4405048600846406820F425
:100F6000702048600846406840F400304860012026
:100F7000DD490860DD49C1F8AC0110BD10B5D948A4
:100F8000406820F47040D74948600846406840F403
:100F9000405048600120D449091F0860022000F039
:100FA000C6F90120D149C1F8B001022000F0BFF913
:100FB0000020CD49091F0860022000F0B8F9002088
:100FC000CA49C1F8B00110BD10B5C648406820F448
:100FD0007040C44948600846406840F4405048604A
:100FE0000020C149091F0860022000F0A0F901207B
:100FF000BE49C1F8B001022000F099F90120BA49B8
:10100000091F0860022000F092F90020B749C1F8DA
:10101000B00110BD10B50120B349091F08600220BE
:1010200000F085F9AF48406820F47040AD49486051
:101030000846406840F4004048600120AB49C1F8D0
:10104000B001022000F073F901E0601CC4B2A648B0
:1010500084380068012801D1FA2CF6DB0020A2496F
:101060000860022000F063F910BD10B5044624B1F9
:1010700001209D49091F086003E000209A49091FCB
:101080000860012098490860022000F050F9002013
:101090009649C1F8B001022000F049F910BD70B5C1
:1010A00004469048406820F470408E4948600846E5
:1010B000406840F44050486000208B49086000259B
:1010C0001FE004F0800020B101208749091F08605B
:1010D00003E000208449091F08606006040E022016
:1010E00000F025F9012080490860022000F01FF976
:1010F00000207E49C1F8B001022000F018F9681CF8
:10110000C5B2082DDDDBFFF785FF70BD70B500258A
:101110007448406820F4704072494860084640684E
:1011200040F400404860002422E000206E4908603E
:10113000022000F0FCF801206C49C1F8B001022047
:1011400000F0F5F868488438006830B1C4F1070150
:10115000012088402843C5B205E0C4F10701002002
:1011600088402843C5B2022000F0E1F8601CC4B2F8
:10117000082CDADB284670BD70B505460C46FFF733
:10118000FDFED020FFF78BFF2846FFF788FF2046A3
:10119000FFF785FFFFF718FF70BD70B50446FFF736
:1011A000EDFED020FFF77BFF2046FFF778FFFFF72B
:1011B000E5FED120FFF773FFFFF7A8FF05460120EA
:1011C000FFF753FFFFF700FF284670BD10B5FFF78C
:1011D000B4FE80216B20FFF7CFFF07211920FFF716
:1011E000CBFF06211A20FFF7C7FF18211B20FFF7AE
:1011F000C3FF09211C20FFF7BFFF00216B20FFF771
:10120000BBFF07216820FFF7B7FF10BD2DE9F041B4
:10121000054600242846FFF7C0FF0646691CC8B2F1
:10122000FFF7BBFF074607EB062004B22046E11795
:1012300004EB11710C112046BDE8F0810EB544207D
:10124000FFF7ABFF8DF800004320FFF7A6FF8DF8F6
:1012500001009DF800009DF8011040EA012000B255
:1012600023490880B1F90000C11700EB1171091181
:101270001F4A11804620FFF790FF8DF8020045209D
:10128000FFF78BFF8DF803009DF802009DF8031017
:1012900040EA012000B217490880B1F90000C117E7
:1012A00000EB11710911134A11804820FFF775FFF7
:1012B0008DF804004720FFF770FF8DF805009DF8BA
:1012C00004009DF8051040EA012000B20A49088098
:1012D000B1F90000C11700EB11710911064A118024
:1012E0000EBD000000100140B00122420000224269
:1012F00034000020360000203800002010B56FF0C8
:10130000040000F0F8FE2E4800682E49B0FBF1F012
:101310002D4908700846007800EB4001C1EBC01071
:101320004FF6FF7101EAC0002849088010BD014650
:10133000254A12784A434FF0E0235A6100229A610D
:101340001A46126942F001021A6100BF4FF0E02212
:10135000106900F001021AB100F48032002AF5D0C1
:101360004FF0E022126922F001024FF0E0231A61EF
:1013700000229A6170470146144A12884A434FF08E
:10138000E0235A6100229A611A46126942F0010272
:101390001A6100BF4FF0E022106900F001021AB19B
:1013A00000F48032002AF5D04FF0E022126922F0DA
:1013B00001024FF0E0231A6100229A617047000099
:1013C0000000002000127A004400002046000020A7
:1013D000014600BF704700BF494A128802F0400230
:1013E000002AF9D0C2B2464B1B1D1A80704710B5B7
:1013F00086B00446012144F2040000F0C5FB4FF41E
:101400000070ADF8140003208DF8160018208DF838
:10141000170005A93B4800F0FBF84FF48060ADF8D9
:10142000140004208DF8170005A9364800F0F0F8E4
:1014300025208DF8000003208DF801008DF80200B2
:1014400001208DF80300684600F00BFE0194002097
:10145000ADF80800ADF80A00ADF80C00ADF81000CA
:101460000C20ADF80E0001A9254800F034FC012243
:1014700040F22551224800F0C6FC0121204800F02E
:10148000B6FC06B010BD10B540F225511C4800F066
:101490009FFD10B31A4800F01BFDC4B21A48008823
:1014A00000F40040C8B91848008800F4804060B1DA
:1014B0000A2C03D000201449088020E0124800883C
:1014C00040F400401049088019E00D2C06D10E4868
:1014D000008840F480400C49088010E00A480088E9
:1014E000C0F30D0009490C5407480088401C064908
:1014F000088008460088C72801DD0020088010BD4C
:1015000000380140000801404C0000206400002029
:101510000948804709480047FEE7FEE7FEE7FEE787
:10152000FEE7FEE7FEE7FEE7FEE7FEE704480549C3
:10153000054A064B704700003703000831010008D8
:1015400090010020900700209003002090030020CD
:1015500010B50446CC48844208D10121042000F093
:101560002DFB0021042000F029FB46E0C7488442FF
:1015700008D10121082000F021FB0021082000F003
:101580001DFB3AE0C248844208D10121102000F03E
:1015900015FB0021102000F011FB2EE0BD48844215
:1015A00008D10121202000F009FB0021202000F0BB
:1015B00005FB22E0B848844208D10121402000F018
:1015C000FDFA0021402000F0F9FA16E0B348844209
:1015D00008D10121802000F0F1FA0021802000F0E4
:1015E000EDFA0AE0AE48844207D10121801500F0EF
:1015F000E5FA0021A01500F0E1FA10BD10B50121B7
:10160000084600F0DBFA0021012000F0D7FA10BDF7
:101610002DE9F04102460025002600200023002489
:10162000002791F803C00CF00F0591F803C00CF0EF
:10163000100CBCF1000F03D091F802C04CEA050574
:1016400091F800C0BCF1000F31D0146800202BE0ED
:101650004FF0010C0CFA00F3B1F800C00CEA0306DD
:101660009E4220D183004FF00F0C0CFA03F7BC43CD
:1016700005FA03FC4CEA040491F803C0BCF1280FFE
:1016800006D14FF0010C0CFA00FCC2F814C00AE0BD
:1016900091F803C0BCF1480F05D14FF0010C0CFAD2
:1016A00000FCC2F810C0401C0828D1D31460B1F867
:1016B00000C0BCF1FF0F34DD546800202EE000F1C3
:1016C000080C4FF0010808FA0CF3B1F800C00CEA5E
:1016D00003069E4221D183004FF00F0C0CFA03F752
:1016E000BC4305FA03FC4CEA040491F803C0BCF1C6
:1016F000280F05D100F1080C08FA0CF8C2F8148084
:1017000091F803C0BCF1480F07D100F1080C4FF06D
:10171000010808FA0CF8C2F81080401C0828CED343
:101720005460BDE8F0814FF6FF71018002218170A5
:101730000421C17070470246002093680B400BB132
:10174000012000E0002070470146886880B27047A1
:1017500002460020D3680B400BB1012000E00020BE
:1017600070470146C86880B27047016170474161A7
:1017700070470AB1016100E041617047C160704784
:101780004FF480320A438261816182618269826999
:10179000704702460020434B18684FF6807318408C
:1017A00040EA021008433F4B186070473E49C86149
:1017B0007047F0B50A46002300240021002500F000
:1017C0000046B6F1004F02D1364EF16901E0354EC8
:1017D0007168C0F3034583B200F44016B6F5401FAC
:1017E00008D121F070612F4E766826F070662D4F7B
:1017F0007E6012E000F48016B6F5801F06D1032645
:1018000006FA05F4A14341F0706106E0460D360189
:1018100003FA06F6B14341F0706122B1460D36017C
:1018200003FA06F6314300F00046B6F1004F02D14C
:101830001C4EF16101E01B4E7160F0BD30B500221D
:101840008B071C0F0F2303FA04F2164B08338C107E
:1018500053F824309343134C08348D1044F825304A
:1018600023468C1053F824308C07240F00FA04F41C
:1018700023430C4C08348D1044F8253030BD0A4900
:10188000DC3108607047000000080140000C014096
:10189000001001400014014000180140001C0140EC
:1018A000002001400000014000002042DF480068A5
:1018B00040F00100DD49086008464068DC49084006
:1018C000DA49486008460068DA490840D7490860A4
:1018D0000846006820F4802008600846406820F42C
:1018E000FE0048604FF41F0088607047CF490968C8
:1018F00021F48031CD4A11601146096821F480211C
:101900001160B0F5803F03D0B0F5802F0ED106E016
:10191000C649096841F48031C44A116007E0C349EF
:10192000096841F4A021C14A116000E000BF00BF76
:10193000704710B501460022002300204A11012AF9
:1019400002D1BA4C236806E0022A02D1B74C236ABE
:1019500001E0B64C636A01F01F02012494401C4070
:101960000CB1012000E0002010BD38B5002000902F
:101970000024002500BF3120FFF7DBFF054600985B
:10198000401C00900098B0F5A06F01D0002DF2D05F
:101990003120FFF7CEFF08B1012400E000242046EB
:1019A00038BD01460020A14A106820F0F80040EA46
:1019B000C10010607047A0490860704702460020CF
:1019C0009A4B586820F47C1042EA01031843974B65
:1019D0005860704798490866704701460020934A4E
:1019E000506820F003000843506070478F484068FB
:1019F00000F00C007047014600208C4A506820F02F
:101A0000F00008435060704701460020874A506844
:101A100020F4E06008435060704701460020834A8C
:101A2000506820F4605040EAC1005060704729B10E
:101A30007E4A527A02437D4B5A7204E07B4A527AC4
:101A400082437A4B5A7270477B49D831086070479D
:101A500001460020754A506820F440400843506019
:101A600070470021714A20321170704A82F82010AC
:101A7000012802D004280AD104E001216B4A203257
:101A8000117005E00521694A2032117000E000BFA5
:101A900000BF70476949086070476449096A01439B
:101AA000624A11627047654944390860704730B531
:101AB00000210022002400235C4D6D6805F00C011C
:101AC00021B1042905D0082923D105E05C4D05602A
:101AD00022E05B4D05601FE0544D6D6805F4701207
:101AE000524D6D6805F48034022505EB92421CB915
:101AF000544D554305600BE04C4D6D6805F40035C1
:101B00001DB1504D5543056002E04D4D55430560F4
:101B100002E04B4D056000BF00BF444D6D6805F00D
:101B2000F0010909484D6B5C0568DD4045603F4D9B
:101B30006D6805F4E061090A434D6B5C4568DD4062
:101B400085603A4D6D6805F46051C90A3E4D6B5C85
:101B50004568DD40C560354D6D6805F44041890B31
:101B60003A4D6B5CC568B5FBF3F5056130BD29B135
:101B70002E4A526902432D4B5A6104E02B4A5269A6
:101B800082432A4B5A61704729B1284A926902431D
:101B9000264B9A6104E0254A92698243234B9A615D
:101BA000704729B1214AD2690243204BDA6104E02F
:101BB0001E4AD26982431D4BDA61704729B11B4A24
:101BC000D2680243194BDA6004E0184AD2688243B3
:101BD000164BDA60704729B1144A12690243134B5D
:101BE0001A6104E0114A12698243104B1A6170476E
:101BF00012494039086070470F49C86470470B4963
:101C0000C87170470948406A40F0807007494862CF
:101C1000704701460020054A92680A400AB1012037
:101C200000E00020704701498872704700100240B0
:101C30000000FFF8FFFFF6FE00004242800442422F
:101C400000127A0000093D004E0000205E000020D6
:101C500010B50446FB48844209D101218803FFF7EF
:101C6000ADFF00214FF48040FFF7A8FF32E0F648B7
:101C7000844209D101214804FFF7ADFF00214FF450
:101C80000030FFF7A8FF25E0F048844209D1012188
:101C90008804FFF7A0FF00214FF48020FFF79BFF8F
:101CA00018E0EB48844209D10121C804FFF793FFF3
:101CB00000214FF40020FFF78EFF0BE0E54884423F
:101CC00008D101210805FFF786FF00214FF480109D
:101CD000FFF781FF10BD2DE9F04786B005460E469F
:101CE0000024A24600BFA1460027B08900B100BF72
:101CF0002F462C8A4CF6FF700440F08804432C8257
:101D0000AC894EF6F3100440B088318908437189DC
:101D100008430443AC81AC8A4FF6FF400440B089CD
:101D20000443AC8201A8FFF7C2FEC648874202D135
:101D3000DDF810A001E0DDF80CA0A88900F4004057
:101D400040B10AEBCA0000EB0A1031684900B0FB51
:101D5000F1F807E00AEBCA0000EB0A1031688900CD
:101D6000B0FBF1F86420B8FBF0F004012009642115
:101D700001FB1089A88900F4004040B1322000EB3B
:101D8000C900B0FBF1F000F00700044308E0322086
:101D900000EB09106421B0FBF1F000F00F000443E8
:101DA0002C8106B0BDE8F0874FF416510160002188
:101DB0008180C18001810C21418100218181704796
:101DC00010B502460020108A4FF2FF0318400B881E
:101DD0004C8823438C882343CC88234318431082A8
:101DE00010BD0021018041808180C180704721B1F8
:101DF000828942F40052828104E082894DF6FF73A9
:101E00001A4082817047F0B5034600240026002561
:101E1000002040F66A17B94200D100BF1846C1F34E
:101E2000421401F01F06012707FA06F5012C01D123
:101E30000C3004E0022C01D1103000E014301AB153
:101E400007682F43076002E00768AF430760F0BDF3
:101E50001AB1838A0B43838202E0838A8B43838295
:101E60007047028A4FF6F0731A400282028A0A43D0
:101E70000282704782894FF2FF731A408281828901
:101E80000A438281704721B1828942F00202828135
:101E900004E082894FF6FD731A4082817047028AFE
:101EA0004FF6DF731A400282028A0A4302827047A9
:101EB00021B1028A42F48042028204E0028A4BF697
:101EC000FF731A4002827047C1F308028280704794
:101ED00001468888C0F308007047818941F00101FC
:101EE00081817047028BD2B20283028B42EA0122C7
:101EF00002837047028B02F47F420283028B0A4303
:101F00000283704721B1828A42F02002828204E07B
:101F1000828A4FF6DF731A408282704721B1828A2B
:101F200042F01002828204E0828A4FF6EF731A4078
:101F30008282704721B1828A42F00802828204E0E4
:101F4000828A4FF6F7731A408282704721B18289E4
:101F500042F40042828103E08289C2F30E02828150
:101F6000704721B1828A42F40062828204E0828A50
:101F70004FF2FF731A4082827047828A4FF6FB73DA
:101F80001A408282828A0A438282704721B1828A01
:101F900042F00202828204E0828A4FF6FD731A4008
:101FA0008282704702460020B1F5007F00D100BF59
:101FB00013880B400BB1012000E00020704701F4B2
:101FC0000072B2F5007F00D100BFCA4302807047A3
:101FD00070B50246002400230025002040F66A1652
:101FE000B14200D100BFC1F3421501F01F03012629
:101FF00006FA03F3012D02D19689334006E0022D43
:1020000002D1168A334001E0968A33400C12012631
:1020100006FA04F41688344013B10CB1012000E034
:10202000002070BD10B50022002340F66A14A142C2
:1020300000D100BF0A1201249440A3B2DC43048003
:1020400010BD00000038014000440040004800403E
:10205000004C00400050004031490143314A1160BA
:10206000704770B5002100230F22C47804B32D4CB3
:10207000246804F4E064C4F5E064210AC1F10403B7
:10208000CA40447804FA03F18478144021430901DA
:10209000254C0678A155047804F01F050124AC40B6
:1020A00005786D11AD0005F1E025C5F8004109E0A6
:1020B000047804F01F050124AC401C4D067876110D
:1020C00045F8264070BD1A4A0A400243154B1B1FB3
:1020D0001A60704739B1134A121D12680243114B3E
:1020E0001B1D1A6006E00F4A121D126882430D4B39
:1020F0001B1D1A607047042808D14FF0E0210969C0
:1021000041F004014FF0E022116107E04FF0E021BF
:10211000096921F004014FF0E022116170470000CD
:102120000000FA050CED00E000E400E080E100E0D2
:1021300080FFFF1F10B50446FE48844208D10121EC
:10214000C014FFF73BFD0021E014FFF737FDC4E0AA
:10215000B4F1804F08D101210846FFF73CFD002172
:102160000120FFF738FDB8E0F348844208D101218F
:102170000220FFF730FD00210220FFF72CFDACE02C
:10218000EE48844208D101210420FFF724FD0021FC
:102190000420FFF720FDA0E0E948844208D1012196
:1021A0000820FFF718FD00210820FFF714FD94E038
:1021B000E448844208D101211020FFF70CFD0021E2
:1021C0001020FFF708FD88E0DF48844208D1012194
:1021D0002020FFF700FD00212020FFF7FCFC7CE021
:1021E000DA48844208D101214014FFF7E7FC0021BE
:1021F0006014FFF7E3FC70E0D548844209D1012167
:10220000C804FFF7DBFC00214FF40020FFF7D6FCE9
:1022100063E0D048844209D101210805FFF7CEFCD4
:1022200000214FF48010FFF7C9FC56E0CA488442F1
:1022300009D101214805FFF7C1FC00214FF400102E
:10224000FFF7BCFC49E0C548844208D10121402089
:10225000FFF7C1FC00214020FFF7BDFC3DE0C04876
:10226000844208D101218020FFF7B5FC00218020A5
:10227000FFF7B1FC31E0BB48844208D10121801551
:10228000FFF7A9FC0021A015FFF7A5FC25E0B64843
:10229000844209D101210804FFF790FC00214FF48A
:1022A0008030FFF78BFC18E0B048844209D101214F
:1022B0004804FFF783FC00214FF40030FFF77EFC59
:1022C0000BE0AB48844208D101218804FFF776FC7B
:1022D00000214FF48020FFF771FC10BD002202881E
:1022E000944B98420ED0994B98420BD0B0F1804F4E
:1022F00008D0914B984205D0904B984202D0904B19
:10230000984204D14FF68F731A404B881A438D4B75
:10231000984207D08C4B984204D04FF6FF431A40A6
:10232000CB881A4302808B8883850B880385814B79
:1023300098420BD0854B984208D08B4B984205D0E1
:102340008A4B984202D08A4B984201D10B7A03867D
:1023500001238382704770B5002400220023058C7E
:102360004FF6FE7635400584028C8388048B4FF649
:102370008F752C40B51E2C400D882C43751E2A40AD
:102380000D892A434D882A436A4DA8420BD06F4DD0
:10239000A84208D0744DA84205D0744DA84202D07E
:1023A000734DA84213D14FF6F7752A404D892A4341
:1023B0004FF6FB752A408D882A434FF6FF652B4068
:1023C0004FF6FF552B408D892B43CD892B438380BE
:1023D0000483CD888586028470BD70B500240022F8
:1023E0000023058C4FF6EF7635400584028C8388F8
:1023F000048B48F6FF752C404FF6FF452C400D88A6
:102400004FF6FF7606EA05252C434FF6DF752A4086
:102410000D8906EA05152A434D8806EA05152A4363
:10242000444DA84202D0494DA8421DD14FF67F75B8
:102430002A404D894FF6FF7606EA05152A434FF6E6
:10244000BF752A408D8806EA05152A434FF6FF35E9
:102450002B404FF2FF752B408D8906EA85052B43F3
:10246000CD8906EA85052B4383800483CD880587C3
:10247000028470BD70B5002400220023058C4FF645
:10248000FF6635400584028C8388848B4FF68F75F8
:102490002C404FF6FC752C400D882C434FF6FF5511
:1024A0002A400D894FF6FF7606EA05252A434D8816
:1024B00006EA05252A431F4DA84202D0234DA84213
:1024C0001DD14FF2FF752A404D894FF6FF7606EA7F
:1024D00005252A434FF6FF352A408D8806EA052553
:1024E0002A434EF6FF752B404DF6FF752B408D8924
:1024F00006EA05152B43CD8906EA05152B43838093
:102500008483CD888587028470BD70B50022002346
:102510000024058C4EF6FF7635400584038C8488B4
:10252000828B48F6FF752A404FF6FF452A400D88FA
:1025300020E00000002C01400004004000080040A2
:10254000000C004000100040001400400034014026
:10255000004C014000500140005401400018004070
:10256000001C0040002000400040014000440140A9
:10257000004801404FF6FF7606EA05252A434DF64E
:10258000FF752B400D8906EA05352B434D8806EA79
:1025900005352B43FA4DA84202D0FA4DA84208D186
:1025A0004BF6FF752C408D894FF6FF7606EA8515B0
:1025B0002C4384808283CD88A0F84050038470BD72
:1025C000828B4FF2FF331A408283828B4FF6FF7368
:1025D00003EA01231A4382837047F0B50C4615467F
:1025E000002200210026078C4EF6FF7C07EA0C072C
:1025F0000784828B018C4FF6FF7707EA043640F69A
:10260000FF473A404FF6FF7707EA05273A434FF670
:10261000FF7707EA03373A43D94FB8420ED0D94F74
:10262000B8420BD0B0F1804F08D0D74FB84205D098
:10263000D64FB84202D0D64FB84206D14DF6FF77FA
:10264000394046F48057394305E047F6FF57394093
:1026500044F48057394382830184F0BD828B4FF666
:10266000F3731A408283828B0A4382837047F0B5EA
:102670000C461546002200210026078C4FF6FF6C01
:1026800007EA0C070784828B018C4FF6FF7707EA75
:1026900004264FF60C773A404FF6FF7707EA031708
:1026A0002F433A43B64FB8420ED0B64FB8420BD084
:1026B000B0F1804F08D0B44FB84205D0B34FB84204
:1026C00002D0B34FB84206D14FF6FF57394046F417
:1026D0008077394305E04FF2FF57394044F4807763
:1026E000394382830184F0BD028B4FF2FF331A40DD
:1026F0000283028B4FF6FF7303EA01231A4302831E
:102700007047F0B50C461546002200210026078CC4
:102710004FF6EF7C07EA0C070784028B018C4FF61B
:10272000FF7707EA041640F6FF473A404FF6FF7777
:1027300007EA03373A434FF6FF7707EA05273A439C
:102740008F4FB8420ED08F4FB8420BD0B0F1804FB0
:1027500008D08D4FB84205D08C4FB84202D08C4F74
:10276000B84206D14FF6DF77394046F010073943BB
:1027700005E04FF65F77394044F010073943028394
:102780000184F0BD028B4FF6F3731A400283028B73
:102790000A4302837047F0B50C461546002200211B
:1027A000068C4FF6FE773E400684028B018C4FF676
:1027B0000C7632407E1C06EA03162E433243704EDE
:1027C000B0420ED06F4EB0420BD0B0F1804F08D067
:1027D0006D4EB04205D06D4EB04202D06C4EB0424C
:1027E00006D14FF6FD76314044F00106314305E055
:1027F0004FF6F576314044F00106314302830184FF
:10280000F0BD70B505460C465D4885420ED05D486A
:1028100085420BD0B5F1804F08D05B48854205D08A
:102820005A48854202D05A48854200D100E000BF94
:10283000208850B92389A28861882846FFF7ABFF1A
:10284000E1882846FFF79EFF25E0208804280AD16A
:102850002389A28861882846FFF753FFE18828462C
:10286000FFF742FF17E0208808280AD12389A288B1
:1028700061882846FFF7FBFEE1882846FFF7EEFE59
:1028800009E02389A28861882846FFF7A6FEE1882F
:102890002846FFF795FE70BD2DE9F04105460C4630
:1028A00000260127608808B9022600E00026A088DB
:1028B000012801D1022700E001272088A0B923893F
:1028C000A28861882846FFF766FFE1882846FFF75F
:1028D00059FF23893A4631462846FFF712FFE1881F
:1028E0002846FFF701FF13E02389A2886188284664
:1028F000FFF707FFE1882846FFF7F6FE23893A46EF
:1029000031462846FFF747FFE1882846FFF73AFFA0
:10291000BDE8F0810A884B881A438B881A43CB881C
:102920001A430B891A434B891A438B891A43A0F81F
:10293000442070474FF6FF71818000210180C180E3
:102940004180017270470021018041808180C180F7
:10295000018141818181C1817047002101804180D5
:10296000012181800021C180018170470021018007
:1029700041808180C1800181418181817047000057
:10298000002C0140003401400004004000080040D9
:10299000000C004021B1028842F00102028004E0F4
:1029A00002884FF6FE731A400280704731B1B0F8CA
:1029B000442042F40042A0F8442005E0B0F844204E
:1029C000C2F30E02A0F8442070471AB183890B436A
:1029D000838102E083898B438381704781827047C2
:1029E00041EA0203A0F8483070471AB183890B43CB
:1029F000838102E083898B438381704701894FF68D
:102A0000F8721140018170470A46002101894FF692
:102A10008F73194011430181704730B504460D464C
:102A200029462046FFF7F0FF208940F0070020816B
:102A300030BD2DE9F04104460D4616461F46602D77
:102A400006D13B46012231462046FFF75AFE05E0FB
:102A50003B46012231462046FFF79DFE294620468F
:102A6000FFF7D2FF208940F007002081BDE8F08108
:102A700030B50C4600210189C9B24FF6FF7505EA51
:102A80000325154325432943018130BD2DE9F0413C
:102A900005460E4617469846002443463A463146B8
:102AA0002846FFF7E5FF2C894FF6F870044044F004
:102AB00007044FF68F70044044F070042C81BDE889
:102AC000F081F0B504460D4616461F463B46324699
:102AD00029462046FFF7CCFF208940F48040208122
:102AE000F0BD0185828270470A46002101884FF6B9
:102AF0008F731940114301807047F0B50C4615469D
:102B00001E460021002200230189028B038C4FF610
:102B1000F877394021434FF6FC473A4040F201171D
:102B20003A434FF6DD773B404FF6FF7707EA06174B
:102B30002F433B43018102830384F0BD0A460021F9
:102B4000018B4FF68F7319401143018370470A467A
:102B50000021018B48F6FF7319404FF6FF7303EA1B
:102B600002231943018370470A460021818B4FF6E7
:102B70008F7319401143818370470A460021818B6E
:102B800048F6FF7319404FF6FF7303EA0223194317
:102B90008183704721B1028842F08002028004E004
:102BA00002884FF67F731A400280704721B18288F5
:102BB00042F00402828004E082884FF6FB731A40E0
:102BC0008280704721B1828842F00802828004E04E
:102BD00082884FF6F7731A408280704721B182884D
:102BE00042F00102828004E082884FF6FE731A40B0
:102BF000828070470A460021018B4FF6F773194017
:102C00001143018370470A460021018B4FF2FF7385
:102C100019404FF6FF7303EA0223194301837047FB
:102C20000A460021818B4FF6F773194011438183C7
:102C300070470A460021818B4FF2FF7319404FF60F
:102C4000FF7303EA02231943818370470A46002178
:102C5000018B4FF6FB7319401143018370470A46FD
:102C60000021018B4FF6FF3319404FF6FF7303EA43
:102C700002231943018370470A460021818B4FF6D6
:102C8000FB7319401143818370470A460021818BF1
:102C90004FF6FF3319404FF6FF7303EA022319433F
:102CA000818370470A460021018B4FF67F731940DC
:102CB0001143018370470A460021018BC1F30E01C5
:102CC0004FF6FF7303EA02231943018370470A4654
:102CD0000021818B4FF67F73194011438183704728
:102CE0000A460021818BC1F30E014FF6FF7303EA00
:102CF00002231943818370470A460021018C4FF655
:102D0000FD7319401143018470470A460021018C6C
:102D10004FF6F77319401143018470470A460021AA
:102D2000018C4FF6DF7319404FF6FF7303EA02136D
:102D30001943018470470A460021018C4FF67F73C6
:102D400019404FF6FF7303EA0213194301847047D9
:102D50000A460021018C4FF6FF5319404FF6FF73CE
:102D600003EA02231943018470470A460021018CBB
:102D70004FF2FF7319404FF6FF7303EA0223194322
:102D8000018470470A460021018C4DF6FF731940FB
:102D90004FF6FF7303EA023319430184704730B5DD
:102DA000002301248C40A3B2048C9C430484048C33
:102DB00002FA01F5ADB22C43048430BD30B50023D6
:102DC00004248C40A3B2048C9C430484048C02FA37
:102DD00001F5ADB22C43048430BD70B5034600202C
:102DE00000241846183001258D40ACB21D8CA54337
:102DF0001D8409B1082909D100EB6100056825F09F
:102E0000700505600568154305600EE00D1FC5F3EC
:102E10004E052844056825F4E045056005684FF631
:102E2000FF7606EA02263543056070BD21B10288AF
:102E300042F00202028004E002884FF6FD731A405D
:102E40000280704721B1028842F00402028004E04F
:102E500002884FF6FB731A400280704721B18288C6
:102E600042F08002828004E082884FF67F731A402D
:102E70008280704702884FF6F7731A4002800288FA
:102E80000A430280704782884FF68F731A4082800F
:102E900082880A438280704702894FF6F8731A408D
:102EA000028102890A430281704702894FF67F73CB
:102EB0001A40028102890A43028170478184704767
:102EC0008185704781867047018770478187704789
:102ED000A0F84010704702884FF6FF431A40028066
:102EE00002880A43028070470146888E7047014677
:102EF000088F70470146888F70470146B1F840003F
:102F000070470146888C70470146088D704702461D
:102F10000020138A0B400BB1012000E00020704715
:102F2000CA430282704730B50246002000230024C5
:102F3000158A05EA0103958905EA010413B10CB16C
:102F4000012000E0002030BDCA4302827047704774
:102F50007047704770477047754600F029F8AE46D5
:102F600005006946534620F00700854618B020B595
:102F7000FEF7DCFABDE820404FF000064FF00007F6
:102F80004FF000084FF0000B21F00701AC46ACE811
:102F9000C009ACE8C009ACE8C009ACE8C0098D467E
:102FA00070470446AFF300802046FDF708F90000A3
:102FB000004870472C0100204FEA41034FEA535369
:102FC000A3F58063D3F11E03C8BFD3F1210C0CDD40
:102FD0004FF0004242EAC12242EA505232FA03FC68
:102FE0008CEAE17CACEBE1707047102BC4BF002091
:102FF000704703F5787CBCF1FF3F04D06FF00042CE
:1030000082EA2100704770B500F0C6F8499224802A
:1030100000207047F2E710F0004248BF4042B0FA8B
:1030200080F310FA03F10AD0C3F11D0303F58063A6
:103030004FEA415002EB035202EBD12170474FF0AF
:1030400000007047DFF848C170B51CEA111E1EBFB2
:103050001CEA13159EEA0C0F95EA0C0F00F06F8026
:1030600081EA030423EA4C134EEAD47E21EA4C1190
:1030700041F4801143F48013AE44A1FB024CA0FB49
:103080000365AEF17F7E361955EB0C05A1FB034CB1
:103090004CF10003A0FB021C16EB0C06654153F13A
:1030A0000003094218BF46F0010613F4007F0BD15C
:1030B0004FEA03314FEA0530340341EA155140EA43
:1030C00016506FF003020AE04FEAC3214FEAC52011
:1030D000F40241EA555140EA56506FF0020202EB09
:1030E0002E4201EB025585EACE710AD05FEA440C0C
:1030F00018BF24F0004450F1000041F1000120EA23
:10310000D47040F2FE7C624500D270BDA84214BF6C
:103110004FF080444FF04044002E08BF0024BEF121
:10312000806FA8BFA1F1C041BDE8704080F28280ED
:103130004FF0000001F1C04101F0004170479EEAEC
:103140000C0F0CEA131518BF95EA0C0F06D04FF0C0
:10315000000081EA030E0EF0004170BD00F01CF883
:103160008900013E00F007B800F009B84FEA430CAF
:103170005FEA5C5C08D081EA030100F05BB84FEACB
:10318000410C5FEA5C5CF6D14FF0000001497047EA
:103190000000FF070000F87F0EF1020E2EF0030E74
:1031A0005EF8046B364205D4012A43EB030515F59E
:1031B000001F12D8012841EB010C1CF5001F0CD890
:1031C0000ED14FEAD17C15F5001F0CEB4C0C0CF125
:1031D000020C08BF4CEBD37C04E04FF0080C01E07C
:1031E0004FEAD37C0CEB4C0526FA05F606F00706F1
:1031F000B6F1040C06D20EEB860CBDE870404CF024
:10320000010C6047DFE80CF0090B02024FF00041AF
:103210004FF00000A1F5002170BD194610460128AD
:1032200051EB010418BFD4F5001484BF002001F055
:10323000004170BD0808A0F500114FEA3101704748
:103240006032000800000020640000006C010008EB
:10325000C4320008640000202C0700008801000828
:1032600000A24A0400000000000000000102030464
:10327000060708090000000000000000EB00000045
:10328000DC000000C3020000D802000001000000C2
:10329000000000000000000000000000000000002E
:1032A000000000000000000000000000000000001E
:1032B00000000102030401020304060708090204D6
:0432C00006080000FC
:0400000508000131BD
:00000001FF
